:020000040800F2
:10000000A82600207D0D0008290400082B04000804
:100010002F04000833040008370400080000000023
:100020000000000000000000000000003B04000889
:100030003D040008000000003F04000841040008DF
:10004000970D0008970D0008970D0008970D000800
:10005000970D0008970D0008970D0008970D0008F0
:10006000970D0008970D0008970D0008970D0008E0
:10007000970D0008970D0008970D0008970D0008D0
:10008000970D0008970D0008970D0008970D0008C0
:10009000970D0008970D0008970D0008970D0008B0
:1000A000970D0008970D0008970D0008970D0008A0
:1000B000970D0008CB070008970D0008970D000862
:1000C000970D0008970D0008970D0008970D000880
:1000D000970D0008F10C0008970D0008E9070008CB
:1000E000970D0008970D0008970D0008970D000860
:1000F000970D0008970D0008970D0008970D000850
:10010000970D0008970D0008970D0008970D00083F
:10011000970D0008970D0008970D0008970D00082F
:10012000970D0008970D0008970D0008970D00081F
:1001300000F002F800F03FF80AA090E8000C8244BA
:100140008344AAF10107DA4501D100F034F8AFF297
:10015000090EBAE80F0013F0010F18BFFB1A43F0A5
:10016000010318471850000038500000103A24BF0F
:1001700078C878C1FAD8520724BF30C830C144BF0C
:1001800004680C607047000000230024002500264E
:10019000103A28BF78C1FBD8520728BF30C148BFEA
:1001A0000B607047642904F0C982002070471FB5B6
:1001B0001FBD10B510BD04F0E5FC1146FFF7F7FFB9
:1001C00000F045F804F003FD03B4FFF7F2FF03BCB1
:1001D00000F034FD10B541F61F41092000F0C8FAC7
:1001E0004FF4165000F011FB65480021017003F038
:1001F0003CFF10BD10B56348007868B162480078D4
:10020000401C61490870084600780A280AD100207D
:10021000087004F039F805E05B48007810B1002060
:100220005949087010BD10B50146002000220BE0AE
:100230000A2391FBF3F403FB14139400A340184327
:100240000A2391FBF3F1521C0029F1DC10BD86B0AA
:1002500000F08AFC4FF4A06000F0B0FD4FF4E130F4
:1002600000F0FAFC00F0DEF900F004FA00F024FBE4
:1002700000F04EFCFFF7AEFF02F006FB43A004F0D7
:1002800029FA4FA004F026FA78E0FFF7B3FF3C48C4
:1002900004F029F8002000F016FA0446022C1FD1C1
:1002A00051A004F017FA012003F0EFFE00200090A7
:1002B00001230246014601900E2000F06BFBC82589
:1002C0000BE0642000F08DFC4E48006808B9012066
:1002D00000E000204B4908606D1E002DF1DC00BFDE
:1002E000042C12D148A004F0F5F9002003F0CDFE53
:1002F0000020009002230246014601900E2000F0EB
:1003000049FB4FF47A7000F06CFC1E48007801281D
:1003100025D1444D2879FFF786FFC6B26879FFF7EB
:1003200082FFC7B2A879FFF77EFF00F0FF0808F050
:100330000F094FEA181A07F00F0B3809059006F05D
:100340000F0004903009039000202E4908605B469E
:10035000CDE900A903A807C800F01CFB0BE00120B1
:1003600028490860002000900F23024601460190B2
:100370000E2000F00FFB642000F033FC85E7000046
:100380000000002001000020020000202D2D2D2D56
:100390002D2D2D2DBBFAD6C7D4C6494F542D4E5402
:1003A00050CDF8C2E7CAB1BCE4BBF1C8A1CAB5D10F
:1003B000E92D2D2D2D2D2D2D2D2D2D0D0A0000007B
:1003C0004B4559313A4169724C696E6BC1ACBDD332
:1003D000C4A3CABD09204B45595F55503AB8B4CEA5
:1003E000BB0D0A0D0A00000057494649BDF8C8EB8D
:1003F0004169724C696E6BC1ACBDD3C4A3CABD0D5B
:100400000A000000A001214257494649B8B4CEBBBA
:10041000A3ACC7EBD6D8D0C2C5E4D6C3C1ACBDD35C
:100420000D0A0000C10C0020704700BFFEE700BFAE
:10043000FEE700BFFEE700BFFEE77047704770476A
:10044000704700000CB50020019000906C480068D7
:1004500040F480306A49086000BF6948006800F4D1
:10046000003000900198401C0190009818B9019844
:10047000B0F5A06FF1D16248006800F4003010B10F
:100480000120009001E0002000900098012843D155
:100490005C48006840F010005A490860084600684F
:1004A00020F0030008600846006840F00200086081
:1004B00053484068524948600846406848600846CA
:1004C000406840F4806048600846406820F47C1032
:1004D00048600846406840F4E810486008460068F4
:1004E00040F08070086000BF4548006800F0007070
:1004F0000028F9D04248406820F003004049486095
:100500000846406840F00200486000BF3C48406830
:1005100000F00C000828F9D10CBD10B5FFF792FFD0
:1005200010BD10B53648006840F00100344908603D
:100530000846406834490840314948600846006828
:10054000324908402E4908600846006820F480209F
:1005500008600846406820F4FE0048604FF41F0021
:100560008860FFF7DAFF4FF000602949086010BD8E
:1005700010B5002100200022214B5B6803F00C0124
:1005800021B1042906D0082928D107E0214B224CAB
:10059000236027E01F4B204C236023E0184B5B684F
:1005A00003F47010164B5B6803F48032022303EBF4
:1005B000904022B9194B4343174C23600DE0104B78
:1005C0005B6803F4003323B1144B4343124C2360A4
:1005D00003E0104B4343104C236003E00D4B0E4CE3
:1005E000236000BF00BF064B5B68C3F303130C4CD2
:1005F000E15C094B1B68CB40074C236010BD000039
:1006000000100240002002400000FFF8FFFFF6FE4D
:1006100008ED00E000127A000400002000093D000F
:100620000800002008B50121242000F051FF4FF4FC
:100630008070ADF8000010208DF8030003208DF8C5
:1006400002006946094800F087FC4FF480710748B2
:1006500000F02FFD0420ADF800006946044800F0CA
:100660007BFC0421024800F024FD08BD0008014085
:100670000014014008B50121142000F029FF0121D8
:10068000374800F03AFD0220ADF8000048208DF810
:1006900003006946334800F05FFC4FF40050ADF8AA
:1006A000000048208DF8030069462E4800F054FCF5
:1006B0000120ADF8000028208DF8030069462A4883
:1006C00000F04AFC08BD10B5044614B101202749CA
:1006D00008702648007868B30221224800F0CFFC59
:1006E00058B14FF400511F4800F0C9FC28B1012156
:1006F0001D4800F0C4FC01281CD10A2000F071FA4A
:1007000000201A4908700221164800F0B8FC08B908
:10071000012010BD4FF40051124800F0B0FC08B9A0
:100720000220F6E70121104800F0A9FC012815D1AC
:100730000420EEE702210B4800F0A1FC01280DD1B6
:100740004103084800F09BFC012807D1012106481D
:1007500000F095FC10B90120044908700020D8E78A
:100760000002300000100140000801401800002085
:100770007FB505460C460121022000F0B6FEADF81B
:100780000850ADF804400020ADF80A00ADF80600AE
:1007900001A9144800F0D4FF01221146114801F0CC
:1007A00046FB1D208DF8000000208DF8010003207D
:1007B0008DF8020001208DF80300684600F003FB6D
:1007C0000121084801F018FB7FBD10B50121054843
:1007D00001F0DBFD28B10121024801F0E7FD02F044
:1007E0005AF810BD0004004008B540F225513048C9
:1007F00001F0A0FF40B12E4801F01CFFC0B20090F4
:100800000121684602F0CFF908BD10B586B0044654
:100810000121082000F05CFE0121880400F065FE43
:10082000234801F0C7FD4FF48060ADF810000320AD
:100830008DF8120018208DF8130004A91D4800F04F
:100840008BFB4FF40060ADF8100004208DF813000E
:1008500004A9184800F080FB00940020ADF80400C3
:10086000ADF80600ADF80800ADF80C000C20ADF8AE
:100870000A0069460E4801F0E0FD01210C4801F034
:1008800068FE012240F22551094801F06EFE272042
:100890008DF8140002208DF8150003208DF8160045
:1008A00001208DF8170005A800F08DFA06B010BDE4
:1008B00000480040000C014008B50121102000F064
:1008C00007FE4FF4E060ADF8000010208DF8030043
:1008D00003208DF802006946894800F03DFB08BD01
:1008E00010B50120874908608749C1F8A4010A2092
:1008F00000F053F900208349091D086010BD10B5B0
:100900000020804908600A2000F047F901207E4954
:10091000C1F8A0010A2000F040F9002079490860E0
:1009200010BD10B50020774908600A2000F035F9A5
:1009300000207549C1F8A4010A2000F02EF9012019
:10094000704908600A2000F028F901206E49C1F8BA
:10095000A40110BD70B50446002518E000206949C7
:10096000086004F0010018B10120091D086003E0CF
:1009700000206449091D08600A2000F00EF9641087
:100980000120604908600A2000F007F96D1C082D5D
:10099000E4DB70BD2DE9F04705460E461746984644
:1009A000DDE90894002D0FDB0F2D0DDC002E0BDB95
:1009B0000F2E09DC002F07DB0F2F05DCB8F1000F2D
:1009C00002DBB8F10F0F01DDBDE8F087FFF788FF0C
:1009D0004020FFF7BFFFFFF792FFFFF7A2FFFFF7EF
:1009E0007FFFC020FFF7B6FFFFF789FF204604EB2B
:1009F000D0714910A4EB410141B9444850F8250099
:100A000040F08000414941F8250007E03F4810F8D8
:100A1000250000F07F003D4941F825003B4911F8D1
:100A20002500FFF797FFFFF76AFF204604EBD07120
:100A30004910A4EB410141B9344850F8260040F078
:100A40008000324941F8260007E0304810F82600BF
:100A500000F07F002D4941F826002C4911F82600AE
:100A6000FFF778FFFFF74BFF204604EBD0714910EA
:100A7000A4EB410141B9254850F8270040F080001F
:100A8000224941F8270007E0204810F8270000F02D
:100A90007F001E4941F827001C4911F82700FFF785
:100AA00059FFFFF72CFF204604EBD0714910A4EB4F
:100AB000410141B9154850F8280040F08000134921
:100AC00041F8280007E0114810F8280000F07F00E6
:100AD0000E4941F828000D4911F82800FFF73AFFA8
:100AE000FFF70DFFFFF71DFFFFF7FAFE8F20FFF75F
:100AF00031FFFFF704FFFFF714FF00BF64E70000BA
:100B000000100140A0012242000022421C000020EF
:100B100008B50121082000F0DBFC0120ADF8000041
:100B200010208DF8030003208DF8020069460A4862
:100B300000F012FA4FF48071084800F0BAFA08BDCC
:100B400010B50020064908600A2000F04AF801208C
:100B50000449C1F8800110BD000C014000080140AB
:100B6000808121420080214210B56FF0040000F026
:100B700074F92E4800682E49B0FBF1F02D49087039
:100B80000846007800EB4001C1EBC0104FF6FF7142
:100B900001EAC0002849088010BD0146254A1278A4
:100BA0004A434FF0E0235A6100229A611A461269C3
:100BB00042F001021A6100BF4FF0E022106900F01C
:100BC00001021AB100F48032002AF5D04FF0E02281
:100BD000126922F001024FF0E0231A6100229A61AB
:100BE00070470146144A12884A434FF0E0235A6185
:100BF00000229A611A46126942F001021A6100BF8E
:100C00004FF0E022106900F001021AB100F48032C6
:100C1000002AF5D04FF0E022126922F001024FF0D5
:100C2000E0231A6100229A6170470000040000204E
:100C300000127A005C0000205E00002000BF7047B8
:100C400000BF4A4A128802F04002002AF9D0C2B21C
:100C5000464B1B1D1A80704710B586B00446012113
:100C600044F2040000F034FC4FF40070ADF81400BE
:100C700003208DF8160018208DF8170005A93C48B0
:100C800000F06AF94FF48060ADF8140004208DF88C
:100C9000170005A9364800F05FF925208DF80000FF
:100CA00003208DF801008DF8020001208DF803006B
:100CB000684600F088F801940020ADF80800ADF80F
:100CC0000A00ADF80C00ADF810000C20ADF80E00D5
:100CD00001A9264801F0B1FB012240F22551234829
:100CE00001F043FC0121214801F033FC06B010BDA6
:100CF00010B540F225511D4801F01CFD10B31B48F2
:100D000001F098FCC4B21B48008800F40040C8B948
:100D10001848008800F4804060B10A2C03D00020FD
:100D20001449088020E01348008840F4004011492D
:100D3000088019E00D2C06D10E48008840F4804050
:100D40000C49088010E00B480088C0F30D000A49E8
:100D50000C5408480088401C064908800846008852
:100D6000C72801DD0020088010BD000000380140C8
:100D700000080140640000208C00002009488047E2
:100D800009480047FEE7FEE7FEE7FEE7FEE7FEE76D
:100D9000FEE7FEE7FEE7FEE704480549054A064B85
:100DA000704700002305000831010008A814002046
:100DB000A8260020A8160020A816002031490143CB
:100DC000314A1160704770B5002100230F22C478AA
:100DD00004B32D4C246804F4E064C4F5E064210AF3
:100DE000C1F10403CA40447804FA03F18478144042
:100DF00021430901254C0678A155047804F01F050C
:100E00000124AC4005786D11AD0005F1E025C5F871
:100E1000004109E0047804F01F050124AC401C4D9A
:100E20000678761145F8264070BD1A4A0A400243FA
:100E3000154B1B1F1A60704739B1134A121D1268F7
:100E40000243114B1B1D1A6006E00F4A121D126867
:100E500082430D4B1B1D1A607047042808D14FF0C8
:100E6000E021096941F004014FF0E022116107E03F
:100E70004FF0E021096921F004014FF0E0221161F7
:100E8000704700000000FA050CED00E000E400E00F
:100E900080E100E080FFFF1F10B50446CC4884428B
:100EA00008D10121042000F02DFB0021042000F0D6
:100EB00029FB46E0C748844208D10121082000F000
:100EC00021FB0021082000F01DFB3AE0C2488442CB
:100ED00008D10121102000F015FB0021102000F0A6
:100EE00011FB2EE0BD48844208D10121202000F0F2
:100EF00009FB0021202000F005FB22E0B8488442D5
:100F000008D10121402000F0FDFA0021402000F02E
:100F1000F9FA16E0B348844208D10121802000F09C
:100F2000F1FA0021802000F0EDFA0AE0AE48844298
:100F300007D10121801500F0E5FA0021A01500F08D
:100F4000E1FA10BD10B50121084600F0DBFA0021DE
:100F5000012000F0D7FA10BD2DE9F041024600252E
:100F60000026002000230024002791F803C00CF085
:100F70000F0591F803C00CF0100CBCF1000F03D06A
:100F800091F802C04CEA050591F800C0BCF1000FD1
:100F900031D0146800202BE04FF0010C0CFA00F364
:100FA000B1F800C00CEA03069E4220D183004FF046
:100FB0000F0C0CFA03F7BC4305FA03FC4CEA0404DB
:100FC00091F803C0BCF1280F06D14FF0010C0CFAC8
:100FD00000FCC2F814C00AE091F803C0BCF1480F4D
:100FE00005D14FF0010C0CFA00FCC2F810C0401CF7
:100FF0000828D1D31460B1F800C0BCF1FF0F34DD74
:10100000546800202EE000F1080C4FF0010808FAA7
:101010000CF3B1F800C00CEA03069E4221D1830014
:101020004FF00F0C0CFA03F7BC4305FA03FC4CEA33
:10103000040491F803C0BCF1280F05D100F1080C9D
:1010400008FA0CF8C2F8148091F803C0BCF1480FFC
:1010500007D100F1080C4FF0010808FA0CF8C2F8AB
:101060001080401C0828CED35460BDE8F0814FF6B4
:10107000FF710180022181700421C1707047024616
:10108000002093680B400BB1012000E00020704766
:101090000146886880B2704702460020D3680B4042
:1010A0000BB1012000E0002070470146C86880B203
:1010B000704701617047416170470AB1016100E00A
:1010C00041617047C16070474FF480320A438261CA
:1010D0008161826182698269704702460020434BC8
:1010E00018684FF68073184040EA021008433F4BDF
:1010F000186070473E49C8617047F0B50A46002342
:1011000000240021002500F00046B6F1004F02D176
:10111000364EF16901E0354E7168C0F3034583B284
:1011200000F44016B6F5401F08D121F070612F4E33
:10113000766826F070662D4F7E6012E000F480160F
:10114000B6F5801F06D1032606FA05F4A14341F047
:10115000706106E0460D360103FA06F6B14341F030
:10116000706122B1460D360103FA06F6314300F0F4
:101170000046B6F1004F02D11C4EF16101E01B4E5A
:101180007160F0BD30B500228B071C0F0F2303FAEE
:1011900004F2164B08338C1053F824309343134C4D
:1011A00008348D1044F8253023468C1053F8243031
:1011B0008C07240F00FA04F423430C4C08348D10E0
:1011C00044F8253030BD0A49DC3108607047000022
:1011D00000080140000C01400010014000140140D3
:1011E00000180140001C01400020014000000140A7
:1011F00000002042DF48006840F00100DD4908603F
:1012000008464068DC490840DA49486008460068FA
:10121000DA490840D74908600846006820F4802071
:1012200008600846406820F4FE0048604FF41F0044
:1012300088607047CF49096821F48031CD4A116038
:101240001146096821F480211160B0F5803F03D078
:10125000B0F5802F0ED106E0C649096841F480310F
:10126000C44A116007E0C349096841F4A021C14A9A
:10127000116000E000BF00BF704710B501460022BA
:10128000002300204A11012A02D1BA4C236806E04B
:10129000022A02D1B74C236A01E0B64C636A01F01E
:1012A0001F02012494401C400CB1012000E00020EA
:1012B00010BD38B5002000900024002500BF31206B
:1012C000FFF7DBFF05460098401C00900098B0F542
:1012D000A06F01D0002DF2D03120FFF7CEFF08B172
:1012E000012400E00024204638BD01460020A14A28
:1012F000106820F0F80040EAC10010607047A04973
:1013000008607047024600209A4B586820F47C1011
:1013100042EA01031843974B5860704798490866A2
:10132000704701460020934A506820F003000843AC
:10133000506070478F48406800F00C0070470146CD
:1013400000208C4A506820F0F0000843506070473D
:1013500001460020874A506820F4E060084350604E
:10136000704701460020834A506820F4605040EAEC
:10137000C1005060704729B17E4A527A02437D4BCA
:101380005A7204E07B4A527A82437A4B5A7270470F
:101390007B49D8310860704701460020754A506883
:1013A00020F440400843506070470021714A2032C9
:1013B0001170704A82F82010012802D004280AD146
:1013C00004E001216B4A2032117005E00521694AD1
:1013D0002032117000E000BF00BF7047694908600B
:1013E00070476449096A0143624A1162704765495E
:1013F00044390860704730B50021002200240023E2
:101400005C4D6D6805F00C0121B1042905D0082957
:1014100023D105E05C4D056022E05B4D05601FE0D7
:10142000544D6D6805F47012524D6D6805F48034AA
:10143000022505EB92421CB9544D554305600BE063
:101440004C4D6D6805F400351DB1504D5543056098
:1014500002E04D4D5543056002E04B4D056000BF75
:1014600000BF444D6D6805F0F0010909484D6B5C03
:101470000568DD4045603F4D6D6805F4E061090A8F
:10148000434D6B5C4568DD4085603A4D6D6805F401
:101490006051C90A3E4D6B5C4568DD40C560354D05
:1014A0006D6805F44041890B3A4D6B5CC568B5FB2E
:1014B000F3F5056130BD29B12E4A526902432D4B27
:1014C0005A6104E02B4A526982432A4B5A617047A1
:1014D00029B1284A92690243264B9A6104E0254AC1
:1014E00092698243234B9A61704729B1214AD2699C
:1014F0000243204BDA6104E01E4AD26982431D4B4D
:10150000DA61704729B11B4AD2680243194BDA608D
:1015100004E0184AD2688243164BDA60704729B15A
:10152000144A12690243134B1A6104E0114A12690A
:101530008243104B1A617047124940390860704766
:101540000F49C86470470B49C87170470948406A21
:1015500040F0807007494862704701460020054A04
:1015600092680A400AB1012000E00020704701495A
:1015700088727047001002400000FFF8FFFFF6FE7F
:10158000000042428004424200127A0000093D00FD
:10159000660000207600002010B50446FE48844214
:1015A00008D10121C014FFF7ADFF0021E014FFF7BF
:1015B000A9FFC4E0B4F1804F08D101210846FFF72C
:1015C000AEFF00210120FFF7AAFFB8E0F3488442F4
:1015D00008D101210220FFF7A2FF00210220FFF71E
:1015E0009EFFACE0EE48844208D101210420FFF7C1
:1015F00096FF00210420FFF792FFA0E0E948844213
:1016000008D101210820FFF78AFF00210820FFF7F9
:1016100086FF94E0E448844208D101211020FFF7BE
:101620007EFF00211020FFF77AFF88E0DF48844228
:1016300008D101212020FFF772FF00212020FFF7B1
:101640006EFF7CE0DA48844208D101214014FFF7A4
:1016500059FF00216014FFF755FF70E0D548844220
:1016600009D10121C804FFF74DFF00214FF40020EC
:10167000FFF748FF63E0D048844209D10121080503
:10168000FFF740FF00214FF48010FFF73BFF56E0CB
:10169000CA48844209D101214805FFF733FF0021E0
:1016A0004FF40010FFF72EFF49E0C548844208D1EF
:1016B00001214020FFF733FF00214020FFF72FFFDB
:1016C0003DE0C048844208D101218020FFF727FF78
:1016D00000218020FFF723FF31E0BB48844208D17E
:1016E00001218015FFF71BFF0021A015FFF717FF51
:1016F00025E0B648844209D101210804FFF702FF22
:1017000000214FF48030FFF7FDFE18E0B04884421E
:1017100009D101214804FFF7F5FE00214FF4003004
:10172000FFF7F0FE0BE0AB48844208D101218804AA
:10173000FFF7E8FE00214FF48020FFF7E3FE10BD25
:1017400000220288944B98420ED0994B98420BD0BD
:10175000B0F1804F08D0914B984205D0904B984201
:1017600002D0904B984204D14FF68F731A404B88A9
:101770001A438D4B984207D08C4B984204D04FF6B9
:10178000FF431A40CB881A4302808B8883850B88DD
:101790000385814B98420BD0854B984208D08B4BE8
:1017A000984205D08A4B984202D08A4B984201D188
:1017B0000B7A038601238382704770B500240022D0
:1017C0000023058C4FF6FE7635400584028C838815
:1017D000048B4FF68F752C40B51E2C400D882C4382
:1017E000751E2A400D892A434D882A436A4DA84216
:1017F0000BD06F4DA84208D0744DA84205D0744D4F
:10180000A84202D0734DA84213D14FF6F7752A4073
:101810004D892A434FF6FB752A408D882A434FF69F
:10182000FF652B404FF6FF552B408D892B43CD890B
:101830002B4383800483CD888586028470BD70B578
:10184000002400220023058C4FF6EF7635400584F6
:10185000028C8388048B48F6FF752C404FF6FF45B9
:101860002C400D884FF6FF7606EA05252C434FF6EF
:10187000DF752A400D8906EA05152A434D8806EAD8
:1018800005152A43444DA84202D0494DA8421DD116
:101890004FF67F752A404D894FF6FF7606EA05150B
:1018A0002A434FF6BF752A408D8806EA05152A435C
:1018B0004FF6FF352B404FF2FF752B408D8906EA1E
:1018C00085052B43CD8906EA85052B438380048358
:1018D000CD880587028470BD70B5002400220023E6
:1018E000058C4FF6FF6635400584028C8388848B17
:1018F0004FF68F752C404FF6FC752C400D882C430D
:101900004FF6FF552A400D894FF6FF7606EA05256A
:101910002A434D8806EA05252A431F4DA84202D0D6
:10192000234DA8421DD14FF2FF752A404D894FF635
:10193000FF7606EA05252A434FF6FF352A408D88B3
:1019400006EA05252A434EF6FF752B404DF6FF7536
:101950002B408D8906EA05152B43CD8906EA05152E
:101960002B4383808483CD888587028470BD70B5C6
:10197000002200230024058C4EF6FF7635400584B6
:10198000038C8488828B48F6FF752A404FF6FF450A
:101990002A400D8820E00000002C01400004004097
:1019A00000080040000C00400010004000140040FF
:1019B00000340140004C01400050014000540140FF
:1019C00000180040001C0040002000400040014082
:1019D00000440140004801404FF6FF7606EA052525
:1019E0002A434DF6FF752B400D8906EA05352B433A
:1019F0004D8806EA05352B43FA4DA84202D0FA4D30
:101A0000A84208D14BF6FF752C408D894FF6FF7622
:101A100006EA85152C4384808283CD88A0F8405047
:101A2000038470BD828B4FF2FF331A408283828B16
:101A30004FF6FF7303EA01231A4382837047F0B520
:101A40000C461546002200210026078C4EF6FF7C2E
:101A500007EA0C070784828B018C4FF6FF7707EAB1
:101A6000043640F6FF473A404FF6FF7707EA05276E
:101A70003A434FF6FF7707EA03373A43D94FB84264
:101A80000ED0D94FB8420BD0B0F1804F08D0D74F0D
:101A9000B84205D0D64FB84202D0D64FB84206D190
:101AA0004DF6FF77394046F48057394305E047F655
:101AB000FF57394044F48057394382830184F0BD95
:101AC000828B4FF6F3731A408283828B0A438283A0
:101AD0007047F0B50C461546002200210026078C01
:101AE0004FF6FF6C07EA0C070784828B018C4FF6D8
:101AF000FF7707EA04264FF60C773A404FF6FF7758
:101B000007EA03172F433A43B64FB8420ED0B64FF9
:101B1000B8420BD0B0F1804F08D0B44FB84205D0D6
:101B2000B34FB84202D0B34FB84206D14FF6FF5779
:101B3000394046F48077394305E04FF2FF5739408A
:101B400044F48077394382830184F0BD028B4FF2E5
:101B5000FF331A400283028B4FF6FF7303EA01231F
:101B60001A4302837047F0B50C4615460022002147
:101B70000026078C4FF6EF7C07EA0C070784028BE0
:101B8000018C4FF6FF7707EA041640F6FF473A400C
:101B90004FF6FF7707EA03373A434FF6FF7707EA36
:101BA00005273A438F4FB8420ED08F4FB8420BD023
:101BB000B0F1804F08D08D4FB84205D08C4FB8425D
:101BC00002D08C4FB84206D14FF6DF77394046F04D
:101BD0001007394305E04FF65F77394044F01007AE
:101BE000394302830184F0BD028B4FF6F3731A4030
:101BF0000283028B0A4302837047F0B50C461546F8
:101C000000220021068C4FF6FE773E400684028BB0
:101C1000018C4FF60C7632407E1C06EA03162E43EA
:101C20003243704EB0420ED06F4EB0420BD0B0F186
:101C3000804F08D06D4EB04205D06D4EB04202D0FC
:101C40006C4EB04206D14FF6FD76314044F00106AD
:101C5000314305E04FF6F576314044F0010631435B
:101C600002830184F0BD70B505460C465D4885428F
:101C70000ED05D4885420BD0B5F1804F08D05B484F
:101C8000854205D05A48854202D05A48854200D143
:101C900000E000BF208850B92389A28861882846C7
:101CA000FFF7ABFFE1882846FFF79EFF25E020887D
:101CB00004280AD12389A28861882846FFF753FFA8
:101CC000E1882846FFF742FF17E0208808280AD15C
:101CD0002389A28861882846FFF7FBFEE188284611
:101CE000FFF7EEFE09E02389A28861882846FFF706
:101CF000A6FEE1882846FFF795FE70BD2DE9F0416C
:101D000005460C4600260127608808B9022600E037
:101D10000026A088012801D1022700E001272088A1
:101D2000A0B92389A28861882846FFF766FFE18869
:101D30002846FFF759FF23893A4631462846FFF7E0
:101D400012FFE1882846FFF701FF13E02389A288EC
:101D500061882846FFF707FFE1882846FFF7F6FE6F
:101D600023893A4631462846FFF747FFE18828464F
:101D7000FFF73AFFBDE8F0810A884B881A438B8849
:101D80001A43CB881A430B891A434B891A438B8910
:101D90001A43A0F8442070474FF6FF71818000215C
:101DA0000180C18041800172704700210180418023
:101DB0008180C180018141818181C1817047002181
:101DC00001804180012181800021C1800181704713
:101DD0000021018041808180C18001814181818118
:101DE00070470000002C0140003401400004004016
:101DF00000080040000C004021B1028842F00102BE
:101E0000028004E002884FF6FE731A400280704799
:101E100031B1B0F8442042F40042A0F8442005E07B
:101E2000B0F84420C2F30E02A0F8442070471AB163
:101E300083890B43838102E083898B4383817047CD
:101E40008182704741EA0203A0F8483070471AB116
:101E500083890B43838102E083898B4383817047AD
:101E600001894FF6F8721140018170470A4600213E
:101E700001894FF68F73194011430181704730B5C6
:101E800004460D4629462046FFF7F0FF208940F022
:101E90000700208130BD2DE9F04104460D4616466D
:101EA0001F46602D06D13B46012231462046FFF7F2
:101EB0005AFE05E03B46012231462046FFF79DFED3
:101EC00029462046FFF7D2FF208940F007002081F5
:101ED000BDE8F08130B50C4600210189C9B24FF64A
:101EE000FF7505EA0325154325432943018130BDCC
:101EF0002DE9F04105460E46174698460024434614
:101F00003A4631462846FFF7E5FF2C894FF6F87030
:101F1000044044F007044FF68F70044044F070040E
:101F20002C81BDE8F081F0B504460D4616461F46EB
:101F30003B46324629462046FFF7CCFF208940F435
:101F400080402081F0BD0185828270470A460021D1
:101F500001884FF68F731940114301807047F0B527
:101F60000C4615461E460021002200230189028BE3
:101F7000038C4FF6F877394021434FF6FC473A403F
:101F800040F201173A434FF6DD773B404FF6FF77BB
:101F900007EA06172F433B43018102830384F0BD08
:101FA0000A460021018B4FF68F73194011430183BC
:101FB00070470A460021018B48F6FF7319404FF61F
:101FC000FF7303EA02231943018370470A46002185
:101FD000818B4FF68F7319401143818370470A46F6
:101FE0000021818B48F6FF7319404FF6FF7303EA17
:101FF000022319438183704721B1028842F0800295
:10200000028004E002884FF67F731A400280704716
:1020100021B1828842F00402828004E082884FF677
:10202000FB731A408280704721B1828842F0080217
:10203000828004E082884FF6F7731A4082807047EE
:1020400021B1828842F00102828004E082884FF64A
:10205000FE731A40828070470A460021018B4FF6BA
:10206000F77319401143018370470A460021018B21
:102070004FF2FF7319404FF6FF7303EA022319432F
:10208000018370470A460021818B4FF6F773194090
:102090001143818370470A460021818B4FF2FF7301
:1020A00019404FF6FF7303EA0223194381837047F7
:1020B0000A460021018B4FF6FB731940114301833F
:1020C00070470A460021018B4FF6FF3319404FF647
:1020D000FF7303EA02231943018370470A46002174
:1020E000818B4FF6FB7319401143818370470A4679
:1020F0000021818B4FF6FF3319404FF6FF7303EA3F
:1021000002231943818370470A460021018B4FF651
:102110007F7319401143018370470A460021018BE8
:10212000C1F30E014FF6FF7303EA02231943018343
:1021300070470A460021818B4FF67F731940114387
:10214000818370470A460021818BC1F30E014FF64F
:10215000FF7303EA02231943818370470A46002173
:10216000018C4FF6FD7319401143018470470A46F4
:102170000021018C4FF6F773194011430184704719
:102180000A460021018C4FF6DF7319404FF6FF73AA
:1021900003EA02131943018470470A460021018CA7
:1021A0004FF67F7319404FF6FF7303EA021319438A
:1021B000018470470A460021018C4FF6FF531940F5
:1021C0004FF6FF7303EA02231943018470470A465E
:1021D0000021018C4FF2FF7319404FF6FF7303EAA1
:1021E00002231943018470470A460021018C4DF6F1
:1021F000FF7319404FF6FF7303EA0233194301845A
:10220000704730B5002301248C40A3B2048C9C435A
:102210000484048C02FA01F5ADB22C43048430BD71
:1022200030B5002304248C40A3B2048C9C43048466
:10223000048C02FA01F5ADB22C43048430BD70B5B4
:102240000346002000241846183001258D40ACB20A
:102250001D8CA5431D8409B1082909D100EB61003B
:10226000056825F0700505600568154305600EE0FA
:102270000D1FC5F34E052844056825F4E0450560AB
:1022800005684FF6FF7606EA02263543056070BD05
:1022900021B1028842F00202028004E002884FF677
:1022A000FD731A400280704721B1028842F0040297
:1022B000028004E002884FF6FB731A4002807047E8
:1022C00021B1828842F08002828004E082884FF649
:1022D0007F731A408280704702884FF6F7731A4066
:1022E000028002880A430280704782884FF68F730B
:1022F0001A40828082880A438280704702894FF6A2
:10230000F8731A40028102890A43028170470289E8
:102310004FF67F731A40028102890A430281704797
:102320008184704781857047818670470187704737
:1023300081877047A0F84010704702884FF6FF432E
:102340001A40028002880A43028070470146888E44
:1023500070470146088F70470146888F70470146D5
:10236000B1F8400070470146888C70470146088DDF
:10237000704702460020138A0B400BB1012000E099
:1023800000207047CA430282704730B502460020E1
:1023900000230024158A05EA0103958905EA010452
:1023A00013B10CB1012000E0002030BDCA4302820D
:1023B0007047000010B50446FB48844209D1012152
:1023C0008803FFF79FF800214FF48040FFF79AF849
:1023D00032E0F648844209D101214804FFF79FF812
:1023E00000214FF40030FFF79AF825E0F0488442CE
:1023F00009D101218804FFF792F800214FF48020D1
:10240000FFF78DF818E0EB48844209D10121C80498
:10241000FFF785F800214FF40020FFF780F80BE06C
:10242000E548844208D101210805FFF778F800212A
:102430004FF48010FFF773F810BD2DE9F04786B018
:1024400005460E460024A24600BFA1460027B089DB
:1024500000B100BF2F462C8A4CF6FF700440F08874
:1024600004432C82AC894EF6F3100440B0883189C5
:102470000843718908430443AC81AC8A4FF6FF409E
:102480000440B0890443AC8201A8FEF7B4FFC648FB
:10249000874202D1DDF810A001E0DDF80CA0A88988
:1024A00000F4004040B10AEBCA0000EB0A103168AA
:1024B0004900B0FBF1F807E00AEBCA0000EB0A1094
:1024C00031688900B0FBF1F86420B8FBF0F004013A
:1024D0002009642101FB1089A88900F4004040B163
:1024E000322000EBC900B0FBF1F000F0070004431C
:1024F00008E0322000EB09106421B0FBF1F000F09D
:102500000F0004432C8106B0BDE8F0874FF416514C
:10251000016000218180C18001810C214181002165
:102520008181704710B502460020108A4FF2FF03E8
:1025300018400B884C8823438C882343CC88234342
:102540001843108210BD0021018041808180C1802C
:10255000704721B1828942F40052828104E082896D
:102560004DF6FF731A4082817047F0B50346002490
:1025700000260025002040F66A17B94200D100BFAE
:102580001846C1F3421401F01F06012707FA06F5A9
:10259000012C01D10C3004E0022C01D1103000E0FC
:1025A00014301AB107682F43076002E00768AF4391
:1025B0000760F0BD1AB1838A0B43838202E0838AED
:1025C0008B4383827047028A4FF6F0731A4002826F
:1025D000028A0A430282704782894FF2FF731A40CF
:1025E000828182890A438281704721B1828942F0C7
:1025F0000202828104E082894FF6FD731A408281D3
:102600007047028A4FF6DF731A400282028A0A4339
:102610000282704721B1028A42F48042028204E0C1
:10262000028A4BF6FF731A4002827047C1F3080218
:102630008280704701468888C0F30800704781890E
:1026400041F0010181817047028BD2B20283028B7B
:1026500042EA012202837047028B02F47F42028326
:10266000028B0A430283704721B1828A42F0200222
:10267000828204E0828A4FF6DF731A4082827047BA
:1026800021B1828A42F01002828204E0828A4FF6EF
:10269000EF731A408282704721B1828A42F00802A9
:1026A000828204E0828A4FF6F7731A408282704772
:1026B00021B1828942F40042828103E08289C2F31F
:1026C0000E028281704721B1828A42F400628282C6
:1026D00004E0828A4FF2FF731A4082827047828A36
:1026E0004FF6FB731A408282828A0A4382827047C5
:1026F00021B1828A42F00202828204E0828A4FF68D
:10270000FD731A408282704702460020B1F5007FB7
:1027100000D100BF13880B400BB1012000E0002066
:10272000704701F40072B2F5007F00D100BFCA43C8
:102730000280704770B50246002400230025002067
:1027400040F66A16B14200D100BFC1F3421501F054
:102750001F03012606FA03F3012D02D196893340A7
:1027600006E0022D02D1168A334001E0968A3340FA
:102770000C12012606FA04F41688344013B10CB189
:10278000012000E0002070BD10B50022002340F6BB
:102790006A14A14200D100BF0A1201249440A3B2DE
:1027A000DC43048010BD00000038014000440040BC
:1027B00000480040004C0040005000402DE9FF4719
:1027C00006460D4692460027A846A9462C4606B165
:1027D00025B94FF0FF3004B0BDE8F08700274EE088
:1027E000701CC05D112846D2DFE800F01E1F204596
:1027F0004521222327454545452B3531090098F8C9
:102800000000444908700846017843A001F062FFC7
:1028100040480078012803D100204649086002E0C2
:1028200001204449086027E026E025E024E023E079
:1028300022E00120404908701EE000203E49087057
:102840001AE099F800103DA001F044FF14E03EA00A
:1028500001F040FF10E0D4F80700A17962792379F4
:10286000CDE90032CDE90210E378A27821883BA0BF
:1028700001F030FF00E000BF00BF781CC7B2307825
:10288000B842ADDC0020A6E710B5FEF759F90020EC
:102890002949087010BD3C480068401C3A4908604E
:1028A000704739480068704700B5FFF7F4FF00BD76
:1028B00008B5002000900121684600F074F908BDB9
:1028C00070B505460E4600240DB9601E70BD00248B
:1028D0001BE0295D2D48FFF7A9FE00BF40212B48D2
:1028E000FFF712FF0028F9D0022C0DD3285DFF2836
:1028F0000AD155212548FFF799FE00BF4021234802
:10290000FFF702FF0028F9D0641CB442E1D330463F
:10291000DCE70000000000204576743A204556456B
:102920004E545F4C45445F4F4E4F46462025642031
:102930000A000000888122420100002052535349BE
:102940002025640A000000005452414E5350415269
:10295000454E545F44415441200A000057494649BE
:102960005F4E5450203A205B25642D25642D25644C
:1029700020253032643A253032643A253032645DA5
:102980005B25645D200A00007C00002000480040B8
:1029900010B504461CB9F9A001F09CFE10BDE0681A
:1029A0006060E068A06000BFF8E710B504461CB99D
:1029B000F2A001F08FFE10BD0020E0606060A0601A
:1029C000206000BFF7E710B504462CB9EBA001F07A
:1029D00081FE4FF0FF3010BD2068FCE710B50446C3
:1029E0002CB9E6A001F076FE4FF0FF3010BD606814
:1029F000A168884201D10020F8E76068A168884298
:102A000003D2A0686168401AF0E72046FFF7DBFFB9
:102A10006168A268891A401AE8E770B504462CB9C3
:102A2000D6A001F057FE4FF0FF3070BD2046FFF7F3
:102A3000CAFF05462046FFF7D1FF281AF5E72DE922
:102A4000F04104460F46164600252CB9CBA001F0F4
:102A500041FE681EBDE8F0812FB9CFA001F03AFE1B
:102A60004FF0FF30F6E76068A168884214D2204634
:102A7000FFF7B4FFB04201D9304602E02046FFF72D
:102A8000ADFF054661682A46384601F02FFF6068B1
:102A9000284460602846DDE72046FFF794FF616820
:102AA000E268891A401AB0420AD9354661682A4656
:102AB000384601F01BFF6068284460602846C9E77B
:102AC0002046FFF780FF6168E268891A451A61684D
:102AD0002A46384601F00AFFE0686060721B7919E7
:102AE0002046FFF7ACFF05442846B3E72DE9F04147
:102AF00004460F46154600262CB9AEA001F0EAFDAB
:102B0000701EBDE8F0812FB9B0A001F0E3FD4FF0D9
:102B1000FF30F6E72046FFF780FFA8420AD820469C
:102B2000FFF77BFF80464146AEA001F0D3FD4FF09A
:102B3000FF30E6E76068A16888422AD82046FFF7A0
:102B400042FFA168E268891A461AB54213D8A06804
:102B50002A46394601F0CAFEA0682844A0602046F3
:102B6000FFF731FFE1680844A168884201D1E068BD
:102B7000A0602846C5E7A0683246394601F0B6FE97
:102B8000E068A060AA1BB9192046FFF7AFFF3044E8
:102B9000B7E7A0682A46394601F0A8FEA068284495
:102BA000A0602846ADE770B504460D46002624B95E
:102BB00092A001F08FFD701E70BD2A4621469848F4
:102BC000FFF794FF0646AE4205D096A001F082FDC5
:102BD0004FF0FF30F0E73046EEE72DE9F0410446D4
:102BE0000D460027002604B135B9294694A001F00E
:102BF00071FD0020BDE8F081022603E0A05D3844AD
:102C0000C7B2761C681EB042F8D83846F2E701B564
:102C100081B0694601AA5078087010784870BDF8F4
:102C200000000CBD0146080601F47F4240EA022084
:102C300001F47F0240EA122040EA116070472DE95A
:102C4000F04104460E4600250027A8462CB98AA06C
:102C500001F040FD681EBDE8F08100250AE0675DD7
:102C6000701B401E14F8008004F80580701B401E85
:102C700027546D1CB5EB560FF1D30020EBE710B5D0
:102C800003460020541AB4FBF3F010BD10B5034600
:102C9000002002FB031010BD2DE9F04704460E464C
:102CA000154600273146284602F0C8F981462146DC
:102CB00002F002F8804602F0C1F807463846BDE847
:102CC000F0872DE9F04704460E46154600272846B2
:102CD00002F0D4F88146214602F0E4F880463146FD
:102CE00001F088FF07463846BDE8F087024612B17A
:102CF00002F0070028B9082901D8002070470120F8
:102D0000FCE702F00700C0F10800884201D3002070
:102D1000F4E70120F2E710B504462CB961A001F0F8
:102D2000D9FC4FF0FF3010BD002020606060FF2014
:102D3000207060700020F6E770B504460D462CB98F
:102D400022A001F0C7FC4FF0FF3070BD40F2BE3151
:102D50005F4801F042FE2A4621465D48801C01F092
:102D6000C5FD5C48A0F82D5B012180F87617FFF7C0
:102D700098FD5849C1F82F0B0020E6E74552524F05
:102D8000523A20696E707574207262206973204E09
:102D9000554C4C0A000000004552524F523A2069EF
:102DA0006E7075742064617461206973204E554C97
:102DB0004C0A00004552524F523A20726220697309
:102DC00020656D707479200A000000004552524F52
:102DD000523A206461746120697320656D70747962
:102DE000200A00004552524F523A206E6F206D6506
:102DF0006D6F7279202564200A0000004552524F01
:102E0000523A2067697A5075744461746120627522
:102E10006620697320656D707479200A00000000D7
:102E2000CC0C00204552524F523A204661696C65E5
:102E30006420746F2072625772697465200A000002
:102E40004552524F523A2067697A50726F746F63DD
:102E50006F6C53756D202C20627566206973206538
:102E60006D707479206F72206C656E206572726F60
:102E700072202564200A000067697A427974654FE0
:102E80007264657245786368616E67652045727229
:102E90006F72202C20496C6C6567616C20506172E8
:102EA000616D0A004552524F523A2067697A50725A
:102EB0006F746F636F6C48656164496E69742068F4
:102EC00065616420697320656D707479200A000063
:102ED000C9080020540100202DE9FC5F05460C467E
:102EE000164699460C9F4FF0000AD34600200190E9
:102EF0008046B9F1000F00D037B9FAA001F0EAFB23
:102F00004FF0FF30BDE8FC9F3A464946684601F065
:102F1000EDFC012F0CD939466846FFF790FEB0F161
:102F2000FF3F05D1FBA001F0D5FB4FF0FF30E9E7F3
:102F300031462046FFF7DAFE8246BAF1000F0CD187
:102F40001DF8050004F007010841C6F10802FF2141
:102F50001141084040EA080821E0BAF1010F1ED1F2
:102F6000681C1DF8000004F00701C1F10801711A86
:102F7000C1F10802FF21114100EA010B1DF8050013
:102F800004F007010841019004F00700C0F10801B6
:102F90000BFA01F040EA0808019848EA00084046A8
:102FA000B0E72DE9F05F05460E4690461C460A9FA5
:102FB0004FF0000AD346D14634B9E3A001F08AFBB2
:102FC0004FF0FF30BDE8F09F41463046FFF78EFEE0
:102FD0008146B9F1000F07D1605D06F0070107FADD
:102FE00001F1084360551EE0B9F1010F1BD1F8B2A1
:102FF00006F00701C1F1080140FA01FA06F00700E6
:10300000C0F10801FF20084100EA070B681C205CA2
:1030100040EA0A00691C6054605D06F007010BFA83
:1030200001F1084360550020CCE7F8B505460C4691
:1030300016460DB104B12EB9CDA001F04BFB4FF0F7
:10304000FF30F8BD287800F0010098B110212278F7
:10305000601C81542078401C207001206B1C0246AB
:10306000002100900846FFF737FF08B1012000E07B
:10307000002030700020E4E770B504460D460026BD
:1030800004B12DB9C5A001F025FB4FF0FF3070BD94
:1030900028782178884203D0CAA001F01BFB0126C2
:1030A0003046F4E738B505460C4605B12CB9CBA03F
:1030B00001F010FB4FF0FF3038BD00202070287861
:1030C00023460122002100900846FFF76AFF0121F4
:1030D0002046FFF7B4FD0020EEE72DE9F047044657
:1030E0000E4617461D46A0464FF0000998F8089076
:1030F0000CB107B135B9C5A001F0ECFA4FF0FF30C3
:10310000BDE8F0871221CD4801F067FCB9F1010F4D
:1031100006D0B9F1020F11D0B9F1050F3FD11EE071
:10312000C64A3632C54904F10900FFF77EFF012087
:10313000C349087000270020286031E0BF493831BA
:10314000481EFFF7AFFF30B9BD4890F86B0B3870E1
:103150000120286002E04FF0FF30D1E720E0A6F127
:103160000A0204F10901B74801F0C0FBA6F10A0008
:10317000B349C1F86D070F21B14890F8332B00F621
:1031800034308154AE4890F8330B401CAC4981F880
:10319000330B0320087000270020286000E000BFE8
:1031A00000BF0020ACE72DE9F04786B00446884612
:1031B00016460027BA46B946254614B1B8F1000FA5
:1031C00007D1A1A001F086FA4FF0FF3006B0BDE8AC
:1031D000F087CEB96846FFF79EFD2079401CC0B24B
:1031E0008DF8040060798DF805000520FFF70FFDCC
:1031F000ADF8020009216846FFF7EFFC8DF80800E2
:10320000EA464FF0090925E003A8FFF784FD287975
:10321000401CC0B28DF8100068798DF81100B11D06
:1032200088B2FFF7F4FCADF80E00287A401CC0B25B
:103230008DF81400324641460DF1150001F056FBA1
:103240000B2103A8FFF7C9FC8DF816000DF10C0A3D
:103250004FF00B0949465046FFF732FB0746002F57
:1032600004DA4A463946844801F034FA3846ADE774
:10327000FEB505460E461746002426B97FA001F08C
:1032800029FA601EFEBD6846FFF745FD05208DF852
:1032900004006B4890F87117D0F87107401C684A19
:1032A000C2F87107C8B28DF805008DF808500720E4
:1032B000FFF7ADFCADF802003A4631460DF10900CA
:1032C00001F014FB0B216846FFF787FC8DF80A001C
:1032D0000B216846FFF7F4FA0446002C01DA214678
:1032E000E0E0E2E067697A4465636F6D7072657370
:1032F00073696F6E56616C7565204572726F7220CE
:103300002C20496C6C6567616C20506172616D0A9C
:103310000000000067697A4465636F6D70726573C1
:1033200073696F6E56616C75652067697A4279744E
:10333000654F7264657245786368616E67652045A4
:1033400072726F72200A000067697A436F6D707243
:1033500065737356616C7565204572726F72202CAF
:1033600020496C6C6567616C20506172616D0A0068
:1033700067697A44617461506F696E74324576652D
:103380006E74204572726F72202C20496C6C6567D8
:10339000616C20506172616D0A00000067697A43B8
:1033A0006865636B5265706F7274204572726F72DC
:1033B000202C20496C6C6567616C20506172616DD6
:1033C0000A00000076616C75654C45445F4F6E4F96
:1033D0006666204368616E6765640A0067697A44BF
:1033E000617461506F696E7473325265706F72747C
:1033F00044617461204572726F72202C20496C6C9C
:103400006567616C20506172616D0A0067697A506E
:10341000726F746F636F6C49737375656450726F0C
:1034200063657373204572726F72202C20496C6C37
:103430006567616C20506172616D0A00870C002025
:10344000540100200B05002067697A50726F746F79
:10345000636F6C4973737565644461746141636B38
:10346000204572726F72202C20496C6C6567616C0C
:1034700020506172616D0A003851000867697A5204
:1034800065706F727444617461204572726F72204E
:103490002C20496C6C6567616C20506172616D0A0B
:1034A00000000000F4A001F015F90B216846FFF7B9
:1034B00043FC2046E6E610B50446F7492046FFF7F0
:1034C000DBFD012812D1F5A001F004F9F249491CF5
:1034D0002046FFF7E7FD28B90122EF49491C0420E7
:1034E000FFF7C6FEF348217880F86A1BFFF7D9F989
:1034F000F149B0FBF1F201FB120090B9EFA001F02D
:10350000E9F8E549491C2046FFF7CCFD28B901221E
:10351000E149491C0420FFF7ABFEE648217880F81A
:103520006A1B10BD2DE9FE4F80460E4617464FF030
:10353000000B002002908146824600253446009010
:10354000B8F1000F01D006B137B9E2A001F0C2F81E
:103550004FF0FF30BDE8FE8F4046FFF73FFA00F026
:10356000FF0ABAF1000F02D14FF0FF30F2E74FF03F
:1035700000095DE0012201A94046FFF760FA834699
:10358000BBF1000F52D0DF480078FF281FD19DF813
:103590000400FF281BD1DC48007848B9FF202070C8
:1035A00060700220D94908800120D749087034E0B2
:1035B000D6480088042830DDD4480088A8422CD0A2
:1035C000FF20207060700220D049088025E0CD489F
:1035D0000078FF2803D19DF8040055281DD0CA4863
:1035E0000078012819D19DF80400C8490988605461
:1035F000C6480088401CC549088008460088042841
:103600000BDD0094009C6088FFF701FB001D85B274
:10361000BE480088A84200D10CE09DF80400B949DA
:103620000870BB480078401CB949087009F10109CD
:10363000D1459FDB00BFB5480088042823DDB3488F
:103640000088A8421FD1B14801882046FFF7C5FA7B
:103650000290AE480088401E215C029881420FD142
:103660002A462146304601F041F93D800020A64916
:103670000870A6490880A6490870A249087069E741
:103680006FF0010066E7012064E710B50024894867
:1036900090F8760700B910BD9EA001F01BF8854890
:1036A000B0F82D1B00F27770FFF70AF90446814845
:1036B000B0F82D0BA04202D09EA001F00BF8FFF74E
:1036C000F0F87C49C1F82F0B00BFE4E770B5044661
:1036D0009F4D34B9AFF60C1000F0FCFF4FF0FF30F7
:1036E00070BD2879401C2179884205D140F2BE3155
:1036F0009748801E01F071F90020F1E73EB50446BD
:10370000002524B993A000F0E5FF681E3EBD2068A7
:103710000090606801909DF80400401CC0B28DF8D4
:1037200004000520FFF773FAADF80200092168468E
:10373000FFF753FA8DF8080009216846FFF7C0F833
:103740000546002D03DA29464BA000F0C3FF2846AA
:10375000DCE710B5574890F87607012829D155487D
:1037600090F8750702281EDAFFF79BF85149D1F847
:103770002F1B401AB0F5FA6F1BD9FFF792F80446D9
:103780004C4890F87537D0F82F2B21467CA000F0DC
:10379000A1FFFFF77AFF474890F87507401C45499D
:1037A00081F8750705E040F2BE316948801E01F0DE
:1037B00014F910BD30B59DB0044600252CB97AA08F
:1037C00000F088FF681E1DB030BD6846FFF7A3FA01
:1037D00002208DF8040060798DF805007EA103C9F0
:1037E000CDE902017FA103C9CDE9040180A103C98C
:1037F000CDE9080181A103C9CDE90601202282A1FA
:103800000AA801F0B8F8202288A10DF1520001F0B9
:103810006DF80020CDF84A00CDF84E009DF851001B
:103820008DF851009DF8510040F002018DF85110C3
:103830000020FFF7ECF9ADF848006F20FFF7E7F93B
:10384000ADF8020073216846FFF7C7F98DF87200E2
:1038500073216846FFF734F80546002D03DA294640
:1038600005A000F037FF2846ADE7FEB504460E463A
:10387000002504B9ECE0F0E04552524F523A207571
:10388000617274207772697465206572726F72203C
:103890002564200A00000000BE0C00206368616EF1
:1038A0006765642C207265706F7274206461746146
:1038B0000A00000054010020C0270900496E666F0D
:1038C0003A2036303053207265706F727420646114
:1038D00074610A0067697A50726F746F636F6C4726
:1038E00065744F6E655061636B6574204572726FCD
:1038F00072202C20496C6C6567616C20506172618C
:103900006D0A00008800002084000020860000204E
:10391000890000205761726E696E673A2074696D84
:10392000656F75742C20726573656E6420646174B4
:1039300061200A004552524F523A20726573656EFB
:10394000642064617461206572726F720A00000005
:10395000CB0800204552524F523A2067697A507284
:103960006F746F636F6C436F6D6D6F6E41636B202F
:103970006461746120697320656D707479200A0038
:103980005761726E696E673A67697A50726F746FC9
:10399000636F6C526573656E644461746120256465
:1039A0002025642025640A0067697A50726F746F5D
:1039B000636F6C476574446576696365496E666FCD
:1039C000204572726F72202C20496C6C6567616CA7
:1039D00020506172616D0A00303030303030303448
:1039E0000000000030303030303030320000000055
:1039F000303330313031303100000000303330317D
:103A000030313030000000006135653164363036C9
:103A10003037383834396332613863363865646238
:103A2000653034323337623200000000366538309A
:103A30003033663861643337346237366133613925
:103A400035666361343063643266323600000000EC
:103A5000F9A000F03FFE681EFEBD6846FFF75BF967
:103A600012208DF8040060798DF805000620FFF71C
:103A7000CEF8ADF802008DF808600A216846FFF71D
:103A8000ACF88DF809000A216846FEF719FF0546D3
:103A9000002D04DA2946AFF2202000F01BFE284654
:103AA000DAE770B504460026254624B9EDA000F0FB
:103AB00011FE701E70BDF148A9680160E96841609F
:103AC000298A0181A97C8172A0F66D31B1F86D0B54
:103AD000FFF79DF8EA49A1F86D0BD1F8740BFFF7D9
:103AE000A1F8E749C1F8740B0E21E54890F8572B6F
:103AF00000F658308154E24890F8570B401CE049DA
:103B000081F8570B042008700020D3E710B5FEF7AA
:103B1000C8FE044600BFFEF7C4FE001BB0F5167FCA
:103B2000F9D9FEF7B1FE10BD10B504462CB9D5A0E9
:103B300000F0D0FD4FF0FF3010BD2089FFF767F88F
:103B40002081DC480078C0F38000217AC1F3800135
:103B500088425AD0207AC0F3800000282BD0207AE7
:103B600000F0010080B10021C54890F8452B00F617
:103B700046308154C24890F8450B401CC04981F83A
:103B8000450BCDA000F0A6FD207AC0F34000002830
:103B90003BD00121BA4890F8452B00F646308154BD
:103BA000B74890F8450B401CB54981F8450BCAA0B1
:103BB00000F090FD29E0207A00F0010080B10021A2
:103BC000AF4890F8452B00F646308154AC4890F849
:103BD000450B401CAA4981F8450BB7A000F07AFDBF
:103BE000207AC0F3400080B10221A54890F8452B0F
:103BF00000F646308154A24890F8450B401CA0497D
:103C000081F8450BBBA000F065FDAA480078C0F321
:103C1000C000217AC1F3C00188422ED0207AC108A9
:103C2000A448008861F3C300A2490880207AC0F349
:103C3000C00088B10321924890F8452B00F6463029
:103C400081548F4890F8450B401C8D4981F8450BF5
:103C5000AFA000F03FFD10E00421894890F8452B0B
:103C600000F646308154864890F8450B401C844944
:103C700081F8450BAEA000F02DFD8E480078C0F312
:103C80000010217AC1F3001188422ED0207A010958
:103C90008848008861F3041086490880207AC0F3C0
:103CA000001088B10521764890F8452B00F6463083
:103CB0008154734890F8450B401C714981F8450BBD
:103CC000A3A000F007FD10E006216D4890F8452BF9
:103CD00000F6463081546A4890F8450B401C68490C
:103CE00081F8450BA2A000F0F5FC72480078C0F303
:103CF0004010217AC1F3401188422ED0207A410928
:103D00006C48008861F345106A490880207AC0F346
:103D1000401088B107215A4890F8452B00F64630EC
:103D20008154574890F8450B401C554981F8450B84
:103D300098A000F0CFFC10E00821514890F8452BE6
:103D400000F6463081544E4890F8450B401C4C49D3
:103D500081F8450B96A000F0BDFC56480088C0F3E2
:103D6000C0202189C1F3C02188422ED02089C10AF8
:103D70005048008861F3CB204E4908802089C0F369
:103D8000C02088B10B213E4890F8452B00F6463004
:103D900081543B4890F8450B401C394981F8450B4C
:103DA0008BA000F097FC10E00C21354890F8452BD3
:103DB00000F646308154324890F8450B401C30499B
:103DC00081F8450B89A000F085FC3A480088C0F3D3
:103DD00000302189C1F3003188421CD02089010BB9
:103DE0003448008861F30C30324908802089C0F3E0
:103DF000003088B10921224890F8452B00F6463062
:103E000081541F4890F8450B401C1D4981F8450B13
:103E10007EA000F05FFC0AE10A21194890F8452BCA
:103E200000F646308154164890F8450B401C144962
:103E300081F8450BF8E0000067697A50726F746F83
:103E4000636F6C4572726F72436D64204572726F5E
:103E500072202C20496C6C6567616C205061726126
:103E60006D0A00004552524F523A204E545020697C
:103E70007320656D707479200A000000C10C002069
:103E80005401002067697A50726F746F636F6C4DD4
:103E90006F64756C65537461747573204572726FCD
:103EA00072202C20496C6C6567616C2050617261D6
:103EB0006D0A00008A0000204F6E426F61726469D3
:103EC0006E673A20536F66744150206F72205765B9
:103ED00062206D6F64650A004F6E426F61726469A3
:103EE0006E673A204169724C696E6B206D6F646534
:103EF0000A0000004F6E426F617264696E673A207B
:103F000053746174696F6E206D6F64650A00000000
:103F100057694669207374617475733A20696E201D
:103F200062696E64696E67206D6F64650A000000E7
:103F300057694669207374617475733A206F75749C
:103F40002062696E64696E67206D6F64650A0000A7
:103F500057694669207374617475733A20636F6E94
:103F60006E656374656420726F757465720A000013
:103F700057694669207374617475733A2064697374
:103F8000636F6E6E656374656420726F75746572BD
:103F90000A00000057694669207374617475733AAA
:103FA00020636F6E6E6563746564206D326D0A0008
:103FB00057694669207374617475733A2064697334
:103FC000636F6E6E6563746564206D326D0A000008
:103FD00057694669207374617475733A2061707013
:103FE00020636F6E6E6563740A000000576946694E
:103FF000207374617475733A206E6F206170702045
:10400000636F6E6E6563740A00000000576946694D
:10401000207374617475733A20696E2074657374CB
:10402000206D6F64650A0000F5A000F053FB0D21C0
:10403000FA4890F8452B00F646308154F74890F83E
:10404000450B401CF54981F8450B2089C0F302203F
:1040500081F86C0B084690F86C1BF1A000F03AFB5D
:104060000220EE490870002066E510B540F26C7041
:10407000EF490860EF48C8600846FEF789FC40F643
:104080007831E64800F0A9FC10BD30B587B0054690
:104090000024052D7ED2DFE805F003316193C100D5
:1040A00001A8FEF738FE0B208DF80800DB4890F8D9
:1040B0007117D0F87107401CD84AC2F87107C8B20E
:1040C0008DF809000520FEF7A2FDADF806000921D4
:1040D00001A8FEF782FD8DF80C00092101A8FEF76A
:1040E000EFFB0446002C04DA2146AFF6740000F022
:1040F000F1FA092101A8FEF71FFEC1E004A8FEF7AE
:104100000AFE09208DF81400C44890F87117D0F801
:104110007107401CC14AC2F87107C8B28DF815007A
:104120008DF818500620FEF772FDADF812000A2136
:1041300004A8FEF752FD8DF819000A2104A8FEF725
:10414000BFFB0446002C04DA2146AFF6D40000F091
:10415000C1FA0A2104A8FEF7EFFD91E004A8FEF7DA
:10416000DAFD09208DF81400AC4890F87117D0F8EA
:104170007107401CA94AC2F87107C8B28DF8150032
:104180008DF818500620FEF742FDADF812000A2106
:1041900004A800E070E0FEF720FD8DF819000A2168
:1041A00004A8FEF78DFB0446002C04DA2146AFF686
:1041B000381000F08FFA0A2104A8FEF7BDFD5FE079
:1041C00001A8FEF7A8FD13208DF80800934890F889
:1041D0007117D0F87107401C904AC2F87107C8B235
:1041E0008DF809000520FEF712FDADF80600092143
:1041F00001A8FEF7F2FC8DF80C00092101A8FEF7DA
:104200005FFB0446002C04DA2146AFF6941000F060
:1042100061FA092101A8FEF78FFD31E001A8FEF740
:104220007AFD15208DF808007C4890F87117D0F8B9
:104230007107401C794AC2F87107C8B28DF80900AD
:104240000520FEF7E4FCADF80600092101A8FEF701
:10425000C4FC8DF80C00092101A8FEF731FB0446CF
:10426000002C04DA2146AFF6F01000F033FA0921F1
:1042700001A8FEF761FD03E06FA000F02BFA00BF7C
:1042800000BF204607B030BD3EB500246846FEF7AB
:1042900042FD17208DF80400604890F87117D0F89F
:1042A0007107401C5D4AC2F87107C8B28DF805005D
:1042B0000520FEF7ACFCADF8020009216846FEF7C8
:1042C0008CFC8DF8080009216846FEF7F9FA0446CF
:1042D000002C03DA21465EA000F0FCF909216846B3
:1042E000FEF72AFD3EBDF0B5ADF2747D0446002513
:1042F0000027002001900090002634B95DA000F056
:10430000E9F9681E0DF2747DF0BDFFF722FA01AAEB
:104310004249491C4648FFF705F90546002D6DD175
:104320005EA000F0D7F93D4E761C30790D2833D0D1
:104330000EDC07282CD006DC012816D0032818D064
:10434000062852D12FE00A282ED00C284DD12CE07F
:10435000142839D004DC0F282CD0112845D132E0A4
:10436000162823D0182840D135E03046FFF722FA2E
:1043700043E06B4602AABDF804102848401CFEF733
:10438000ACFE20B902A93046009AFEF70CFF34E0DB
:104390003046FFF7B3F930E03046FFF7AFF930466B
:1043A000FFF7C2FB29E000BF00BF00BF3046FFF7A8
:1043B0008DF922E03046FFF7A1F93DA000F08AF91F
:1043C000FFF7A4FB19E018E03046FFF77FF93DA0A6
:1043D00000F080F911E03046FFF778F93046FFF73A
:1043E00060FB40A000F076F907E002213046FFF7BD
:1043F0003CFA42A000F06EF900BF99E08AE00000AC
:1044000057694669207374617475733A206F7574C7
:104410002074657374206D6F64650A005401002078
:1044200052535349206973202564200A000000007C
:10443000CC0C0020DC0C00204552524F523A204355
:1044400066674D6F6465206572726F72210A0000A5
:104450004552524F525B4E54505D3A207561727412
:10446000207772697465206572726F7220256420EE
:104470000A00000047697A7769747348616E646C5A
:1044800065204572726F72202C20496C6C656761E3
:104490006C20506172616D0A000000004765742055
:1044A0004F6E65205061636B6574210A0000000047
:1044B0007265706F72743A4D4355207265626F6F0A
:1044C00074210A0041636B2050524F4455435449B4
:1044D0004F4E5F4D4F444520737563636573732082
:1044E0000A00000041636B204745545F5554542037
:1044F00073756363657373200A0000004552524F61
:10450000523A20636D6420636F6465206572726F38
:1045100072210A0015F1020F0AD15A4E01213046CC
:10452000FFF7A3F958A000F0D5F86FF00100E9E615
:104530005448401E0078012806D0022814D00328D1
:1045400023D004283FD12DE000204E49491E087099
:10455000012201F66931A1F13600FEF72FF912218F
:10456000504800F03AFA2EE000204649491E0870F3
:10457000012201F66C31A1F12700FEF71FF912218B
:104580004848123000F029FA1DE000203D49491E3C
:1045900008700846D0F86D2700F2B7314148FEF7A1
:1045A0000DF910E000203749491E08700B2201F672
:1045B0006D31A1F11600FEF701F9122139482430BE
:1045C00000F00BFA00BF00BF2046FEF774FF00208A
:1045D00098E62DE9F041ADF56E7D06460F464FF0A9
:1045E000000846B930A000F075F84FF0FF300DF527
:1045F0006E7DBDE8F0816C46B81D85B2FF2004F8E1
:10460000010B04F8010B281204F8010B04F8015BFC
:10461000052004F8010B1B48401E90F87117D0F8D4
:104620007107401C174A521EC2F8710704F8011B9B
:10463000002004F8010B04F8010B062004F8010B1C
:104640003A4631460DF1090000F050F9291D68463F
:10465000FEF7C3FA0146E81C0DF80010291D684654
:10466000FEF72EF98046B8F1000F04DA4146AFF6A6
:10467000F85000F02FF8291D6846FEF75DFB00207A
:10468000B5E70000550100204552524F523A2063D1
:104690006865636B2073756D206572726F72210A95
:1046A00000000000870C00205B4572726F725D2075
:1046B00067697A77697473506173737468726F7520
:1046C000676844617461204572726F72200A00004D
:1046D000704700000FB4044910B503AA029800F017
:1046E000FBF910BC5DF814FB6000002070B50446B7
:1046F00085690068C10601D5302600E02026C00784
:1047000007D070BDD4E9012130469047206A401C93
:1047100020626D1EF6D570BD70B5044685690078BF
:10472000C00707D170BDD4E9012120209047206A3D
:10473000401C20626D1EF6D570BD00002DE9F041D1
:104740000646002410687529314616A510D0AFF32F
:104750000080002802DA404213A507E031688A078A
:1047600001D512A502E0490704D511A5012401E0F5
:10477000AFF3008000210A2206F1240709E0B0FB14
:10478000F2FCB0FBF2F302FB1C0030307854184608
:10479000491C0028F3D123462A463046BDE8F041A3
:1047A00000F041B9000000002D0000002B000000C7
:1047B000200000002DE9F05F894604464FF0000A12
:1047C000DFF824B1FB44C0F820A02046E168884708
:1047D00000287DD0252806D0D4E901219047206A01
:1047E000401C2062F1E700255F462046E1688847CB
:1047F0002028064607DB312E05D2B81910F8200C08
:1048000008B10543F1E7A80701D525F00405C4F870
:104810001CA00027C4F818A02A2E09D0304600F0AA
:10482000E1F938B304EB8708303EC8F8186019E0A6
:1048300059F8041B204604EB87029161E168884720
:10484000012F064618D1E069002820DA25F020055E
:104850001DE0D8F8180000EB800006EB400030386F
:10486000C8F818002046E1688847064600F0BAF903
:104870000028EED1012F0AD02E2E08D12046E16863
:1048800088477F1C0646022F45F02005C4DBA0693F
:10489000002803DA404245F00105A061E80701D095
:1048A00025F01005A6B1A6F14100192802D820363E
:1048B00045F400654A463146204625604D46FBF7E3
:1048C00071FC60B1012807D0ED1D25F0070000E064
:1048D00007E000F1080978E705F1040975E73046BB
:1048E0007AE7206ABDE8F09F5E090000032A40F2E3
:1048F000308010F0030C00F0158011F8013BBCF182
:10490000020F624498BF11F801CB00F8013B38BF99
:1049100011F8013BA2F1040298BF00F801CB38BFA7
:1049200000F8013B11F0030300F02580083AC0F0C5
:10493000088051F8043B083A51F804CBA0E808106D
:10494000F5E7121D5CBF51F8043B40F8043BAFF3A0
:104950000080D20724BF11F8013B11F801CB48BFFA
:1049600011F8012B24BF00F8013B00F801CB48BF30
:1049700000F8012B704710B5203AC0F00B80B1E869
:104980001850203AA0E81850B1E81850A0E8185084
:10499000BFF4F5AF5FEA027C24BFB1E81850A0E88D
:1049A000185044BF18C918C0BDE810405FEA827CA7
:1049B00024BF51F8043B40F8043B08BF7047D207BE
:1049C00028BF31F8023B48BF11F8012B28BF20F85F
:1049D000023B48BF00F8012B70474FF0000204294A
:1049E000C0F0128010F0030C00F08A80CCF1040CAF
:1049F000BCF1020F18BF00F8012BA8BF20F8022B52
:104A0000A1EB0C0100F07CB85FEAC17C24BF00F888
:104A1000012B00F8012B48BF00F8012B70477047AD
:104A20007047704770472DE9F0470D46994692460A
:104A3000044600F124080168880604D5E06921F0E5
:104A40001001216000E00120A84201DD471B00E0C9
:104A50000027A1697A1902EB0900081AA0612078E1
:104A6000C00602D42046FFF741FE002608E0D4E944
:104A700001211AF806009047206A401C761C20622B
:104A80004E45F4DB2078C0060AD52046FFF72EFEFF
:104A900006E0D4E9012130209047206A401C2062C2
:104AA000381EA7F10107F4DC07E0D4E9012118F86A
:104AB00005009047206A401C2062281EA5F10105D0
:104AC000F3DC2046FFF728FE2078000602D50220FE
:104AD000BDE8F0870120FBE7074B70B50D467B442E
:104AE00000F039F80446284600F048F810B14FF0BD
:104AF000FF3070BD204670BD5FC1FFFF4FF0000268
:104B000000B5134694469646203922BFA0E80C50C3
:104B1000A0E80C50B1F12001BFF4F7AF090728BF9E
:104B2000A0E80C5048BF0CC05DF804EB890028BF1A
:104B300040F8042B08BF704748BF20F8022B11F043
:104B4000804F18BF00F8012B7047000001694A1C14
:104B500002610878704700B58FB0CDE901310021BE
:104B6000059105497944CDE9031011466846FFF7E0
:104B700021FE0FB000BD0000E5FFFFFF007B00F04D
:104B800080007047754600F029F8AE46050069467A
:104B9000534620F00700854618B020B5FCF7FCF816
:104BA000BDE820404FF000064FF000074FF000082E
:104BB0004FF0000B21F00701AC46ACE8C009ACE8AF
:104BC000C009ACE8C009ACE8C0098D46704704468E
:104BD000AFF300802046FBF7F7FA0000004870476B
:104BE0004814002030380A2801D2012070470020E4
:104BF0007047000090EA010F48BF81F0004100F1CA
:104C00002482421A3CBF801A89184FEAD0524FF0D2
:104C10007F4C1CEA410FA2EBD15318BF9CEA026FF4
:104C200000F03B804FF0004C4CEA00204CEA0121A0
:104C300021FA03FC10EB0C0C1ED202F1FF325FEAEA
:104C40001C2040EBC25038BF70471CF07F0F4FEA6A
:104C5000400C18BFBCF17F4F38BF7047C3F1200331
:104C6000994008BF20F00100BCF17F4F38BF70476A
:104C7000A0F1C04000F0DDB94FEA3C00000A40EB73
:104C8000C25028BF1CF0FF0F4FEA400CE6D018BFFF
:104C9000BCF17F4F38BF7047EAE79CEA026F05D04E
:104CA00010EA5C0F08BF00F00040704710B500F03C
:104CB0007AF900BF64FBBE3E4FF47F0C1CEAD012B1
:104CC0001EBF1CEAD11392EA0C0F93EA0C0F00F0FE
:104CD000858090EA010F48BF42F4807240F4000CD6
:104CE00041F400002CF07F4120F07F4000B581426C
:104CF000A2EB03020FF2081CACEB504EC0F1000017
:104D00009EF800E04FEA4E0E00FB0EFC38BF490053
:104D10004FEA2C1C02F5FA020CFB0EF34FEACE1EF2
:104D20004FEA112C4FEAC1210EEB635E42EB2242A7
:104D30000EFB0CFC4FEA1C5300FB03114FEA112C35
:104D40004FEA01310EFB0CFC4FEADC4C00FB0C116E
:104D5000C14228BF09184CEB03335DF804EB10EB9C
:104D6000410143EBC250B2F57C0F38BF704729D5E3
:104D700012F0F00F1CBF00F1C04000F0004070477F
:104D8000008182838485868788898B8C8D8E8F9124
:104D90009293959697999A9C9D9FA0A2A3A5A7A848
:104DA000AAACAEB0B2B3B5B7B9BCBEC0C2C5C7C974
:104DB000CCCED1D4D7D9DCDFE2E6E9ECF0F3F7FAD8
:104DC000FE0000004FEA400C0CF1807CBCF17E4FED
:104DD00028BF7047B0F1C04000F02BB990EA010F36
:104DE0000CEAD11348BF42F48072624538BF634574
:104DF00007D213F47F0F16D080EA010000F00040C4
:104E0000704710B500F0CFF8097EFC3E00F005B801
:104E100080EA010000F00040704780EA010000F0E5
:104E2000004000F006B912F47F0F04BF024870473B
:104E300080EA010000F0FDB80000C07FC10DD1F193
:104E40009E0206DB4FEA002343F0004323FA02F000
:104E50007047004207D54FEA4001B1F1FE4F02D240
:104E60004FF00000704710B500F09DF84992248083
:104E7000002070476FEA200070470000B0FA80F30E
:104E800010FA03F2C3F19D030AD0D90501EB1220F9
:104E9000530638BF704700F1010008BF20F0010041
:104EA000704700004FF47F0C1CEAD0121EBF1CEAB2
:104EB000D11392EA0C0F93EA0C0F00F0478090EAAE
:104EC000010F48BF42F480724FF0004C4CEA0020C2
:104ED0004CEA012102EB0302A0FB0113A2F5000240
:104EE000002918BF43F001035B0028BF4FEA3303DA
:104EF00042EB22425FEA132C4CEBC2502EBFBCEBBC
:104F0000436FB2F57C0F70474FEA036CBCF1004F62
:104F100008BF20F00100B2F57C0F38BF70470BD5F9
:104F200082F0FF0212F5803FC8BF704700F1C04019
:104F3000D8BF00F00040704700F5000C5FEA4C0C51
:104F400048BF7047B0F1C04000F073B890EA010F5D
:104F50000CEAD11348BF42F48072624538BF634502
:104F600004D280EA010000F00040704710B500F064
:104F70001AF800BF8900013E00F007B800F009B838
:104F80005FEA410C5FEA1C6C08D080EA010000F087
:104F900050B85FEA400C5FEA1C6CF6D14FF000405D
:104FA000A0F5800070470EF1020E2EF0030E5EF8A1
:104FB000044B244204D44FEA4102B2F17F4F11D88E
:104FC0004FEA4003B3F17F4F0CD80ED14FEAD07CAB
:104FD000B2F17F4F0CEB4C0C0CF1020C08BF4CEB08
:104FE000D17C04E04FF0080C01E04FEAD17C0CEBDF
:104FF0004C0324FA03F404F00704B4F1040C06D2C1
:105000000EEB840CBDE810404CF0010C6047DFE86B
:105010000CF0070802024FF00040A0F5800010BD20
:105020000846420018BFD2F1807288BF00F00040ED
:1050300010BDFF2141EAD050C005704790EA010F32
:1050400048BF81F000413FF5DCAD421A04D882F040
:105050000042A0EB020011444FEAD0524FF07F4CC7
:105060001CEA410FA2EBD15318BF9CEA026F4AD051
:105070004FF0004C4CEA00204CEA012121FA03FCDD
:10508000B0EB0C0C0FD412F0FE0F36D05FEA4C00E0
:105090001DD5001240EBC25038BF70471CF03F0FC7
:1050A00018BF70470BE0A2F101025FEA1C2040EB41
:1050B000C25038BF70471CF07F0F18BF7047C3F154
:1050C0002003994014BF401E20F001007047800863
:1050D0004FEA122308BF7047B0FA80FCA2EB0C0223
:1050E000CCF1280C60FA0CF093EA122F04BF00EB0D
:1050F000C25070474FEAC3707047130A5FEADC1072
:1051000008BF7047F6E79CEA026F04D010EA5C0F14
:1051100008BF0020704710B5FFF745FF40DFF63E9F
:1051200081F000407047040000080000000000000B
:1051300000020001000010004552524F523A206711
:10514000697A50726F746F636F6C497373756564BD
:105150004461746141636B20756172742077726978
:105160007465206572726F722025642064617461B9
:105170004C656E202564200A000000009C51000848
:10518000000000208C0000006C010008285200087C
:105190008C0000201C260000880100080000000090
:1051A00000A24A0400000000000000000102030405
:1051B00006070809010000003F000000060000008B
:1051C0005B0000004F000000660000006D00000062
:1051D0007D000000070000007F0000006F0000005D
:1051E000770000007C000000390000005E00000035
:1051F00079000000710000000000000000000000C5
:10520000000000000000010203040102030406077D
:105210000809020406080000000000000000000069
:08522000000000000000000086
:0400000508000131BD
:00000001FF
